:020000040800F2
:1000000000500020E1000008000000000000000097
:1000100000000000000000000000000000000000E0
:1000200000000000000000000000000000000000D0
:1000300000000000000000000000000000000000C0
:1000400000000000000000000000000000000000B0
:1000500000000000000000000000000000000000A0
:100060000000000000000000000000000000000090
:100070000000000000000000000000000000000080
:1000800000000000000000003D0300080000000028
:100090000000000000000000000000000000000060
:1000A0000000000000000000000000000000000050
:1000B0000000000000000000000000000000000040
:1000C0000000000000000000000000000000000030
:1000D0000000000000000000000000000000000020
:1000E0002DE9F0478B4B82B01A6842F480321A60D7
:1000F0001A689703FCD51968864A21F08071196047
:10010000596841F4E0115960596841F480315960EF
:10011000196841F08071196013689E01FCD54FF099
:1001200080417D4C7B4B206840F00200206050688D
:1001300040F480605060506840F0020050605A689F
:100140001507FCD5002440F65F1C4FF6FF77DA69EF
:10015000092542F00102DA619A69704842F004020E
:100160009A619A6942F008029A619A6942F40072AF
:100170009A619A6942F001029A61D0F8006C684A6B
:1001800026F0F006C0F8006C0C60C1F828C0CF6201
:100190004C620E6846F001060E60596821F4404139
:1001A0005960596841F440415960D2F8103423F045
:1001B0006053C2F81034D2F8103443F06053C2F8E0
:1001C0001034D2F82C3423F47003C2F82C34C2F863
:1001D00034544368D2F8081423F0E06343F000730A
:1001E00041F002014360C2F80814D2F8083443F029
:1001F0000103C2F808340194019BB3F57A7F06DA53
:10020000019B01330193019BB3F57A7FF8DB444AEC
:10021000D2F8083443F00803C2F80834D2F808349E
:100220001C07FBD4D2F808143D4B41F00401C2F87E
:100230000814D3F808245007FBD44FF03334D3F814
:100240000824364822F46022C3F80824D3F808149E
:10025000334A41F46021C3F80814D3F8081441F478
:100260008011C3F80814D3F8081441F00101C3F851
:100270000814D3F8081441F48001C3F80814C0F836
:100280000048C0F80448D2F800349907FBD5D2F8EA
:100290004C34234AD2F800349B07FBD540F2545A21
:1002A000D2F84C344FF0E0219BB253458CBF002371
:1002B00001234FF480284FF08047B426DFF8649084
:1002C000194D89F80030D2F80434184C43F020035B
:1002D000C2F80434DFF858E0C1F80081DFF854C0F8
:1002E00015480E497B6AD5F800802268A3EB080305
:1002F000B3FBF2F3BEF8002092B213449A08A0FBBD
:100300000282920806FB12333CF81330C1F80C3815
:10031000E8E700BF0010024000200240000001405A
:1003200000200140240000202000002018000020B0
:100330001E00002038040008176CC116F0B5334BBE
:10034000334AD3F84C3411789BB2A1B940F25451DE
:100350008B4210D80123137013784FF0E0214FF433
:1003600080202A4AD2F8003423F00203C2F8003475
:10037000C1F88002F0BD11780029EED040F24E7134
:100380008B42EAD94FF080434EF6FA1121485C6A5D
:100390000368E31A9BB2A3F165058D4224D81E4D74
:1003A0001E4E95F800C01E4F316857F82CE01944D6
:1003B00047F82C30A1EB0E031A493360A1FB03135D
:1003C00019490CF1010EA1FB0E61184E01F4FE7CDF
:1003D0005B0A0CEB91013360AEEB01032B703368C9
:1003E0000BB90123336004600023B4241049137057
:1003F0000B8810489BB201339A08A0FB02029208B6
:1004000004FB12339BB20B80A7E700BF0020014022
:1004100024000020200000201C00002000000020FC
:1004200004000020C5B3A291CDCCCCCC1800002094
:100430001E000020176CC116808080808080808024
:10044000FF9FC090C090C090C090A0889F87808080
:100450008080EF9F808080809F87A088C090C0911F
:10046000C091C089A08780808080EF9F808080803D
:10047000C080C080C080FF9FC080C080C08080805E
:100480008080809C81839E82E0829E828183809C8A
:1004900080808080FF9F809080908090809080906E
:1004A00080808080FF9FC290C290C090C090C0901A
:1004B000808080809C88A290C290C190C190C190A1
:1004C000A08F808080808080C090C090FF9FC0906F
:1004D000C09080808080C090C090FF9FC090C090EE
:1004E0008080808080800000000000008280828008
:1004F000858085808881888190829082A084A08474
:10050000C098C098A084A0849082908288818881BD
:1005100085808580828082800000000080808080CD
:100520008080FF9FA080908088809080A080FF9F27
:1005300080808080EF9F80808080FF9FC180C1810C
:10054000C182C284BC9880808080809C81838E829E
:10055000B882C082B8828E828183809C80808080B5
:10056000FF9FC180C181C182C284BC98808080808D
:100570009F87A088C090C090C090C09080808080ED
:10058000FF9F80818081808180818081FF9F80802A
:100590008080EF9F808080808080808080808080CD
:1005A000D0780200907E0000907E0000907E0000D7
:0C05B000907E0000907E0000B40000006F
:04000005080000E10E
:00000001FF
