:020000040800F2
:1000000000500020E1000008000000000000000097
:1000100000000000000000000000000000000000E0
:1000200000000000000000000000000000000000D0
:1000300000000000000000000000000000000000C0
:1000400000000000000000000000000000000000B0
:1000500000000000000000000000000000000000A0
:100060000000000000000000000000000000000090
:100070000000000000000000000000000000000080
:10008000000000000000000039030008000000002C
:100090000000000000000000000000000000000060
:1000A0000000000000000000000000000000000050
:1000B0000000000000000000000000000000000040
:1000C0000000000000000000000000000000000030
:1000D0000000000000000000000000000000000020
:1000E0002DE9F0478A4B82B01A6842F480321A60D8
:1000F0001A689703FCD51968854A21F08071196048
:10010000596841F4E0115960596841F480315960EF
:10011000196841F08071196013689E01FCD54FF099
:1001200080417C4C7A4B206840F00200206050688F
:1001300040F480605060506840F0020050605A689F
:100140001507FCD5002440F65F1C4FF6FF77DA69EF
:10015000092542F00102DA619A696F4842F004020F
:100160009A619A6942F008029A619A6942F40072AF
:100170009A619A6942F001029A61D0F8006C674A6C
:1001800026F0F006C0F8006C0C60C1F828C0CF6201
:100190004C620E6846F001060E60596821F4404139
:1001A0005960596841F440415960D2F8103423F045
:1001B0006053C2F81034D2F8103443F06053C2F8E0
:1001C0001034D2F82C3423F47003C2F82C34C2F863
:1001D00034544368D2F8081423F0E06343F000730A
:1001E00041F002014360C2F80814D2F8083443F029
:1001F0000103C2F808340194019BB3F57A7F06DA53
:10020000019B01330193019BB3F57A7FF8DB434AED
:10021000D2F8083443F00803C2F80834D2F808349E
:100220001C07FBD4D2F808143C4B41F00401C2F87F
:100230000814D3F808245007FBD44FF03334D3F814
:100240000824354822F46022C3F80824D3F808149F
:10025000324A41F46021C3F80814D3F8081441F479
:100260008011C3F80814D3F8081441F00101C3F851
:100270000814D3F8081441F48001C3F80814C0F836
:100280000048C0F80448D2F800349907FBD5D2F8EA
:100290004C34224AD2F800349B07FBD540F6E44A9E
:1002A000D2F84C34DFF878909BB20AFB03F34B454D
:1002B0008CBF002301234FF0E0214FF480274FF043
:1002C0008046B425DFF85C80174C88F80030D2F8FF
:1002D0000434DFF858E043F02003C2F80434DFF8B8
:1002E00050C0C1F8007113480B49736A2768DEF8E3
:1002F0000020DB1BB3FBF2F39A08A0FB027292080A
:1003000005FB12333CF81330C1F80C38EDE700BFA1
:100310000010024000200240000001400020014087
:100320001D1B4E00080000200400002000000020DB
:10033000C0030008176CC11630B41C4B1C4AD3F81C
:100340004C3411789BB2A9B940F254518B4211D868
:100350000123137013784FF0E02130BC4FF480205C
:10036000124AD2F8003423F00203C2F80034C1F874
:100370008002704711780029EDD040F24E718B4217
:10038000E9D94FF080430B4C5B6A25680A4823602B
:100390005B1B9B08A0FB030308499B080B600B68D1
:1003A0000BB901230B6000231370D4E70020014038
:1003B0000800002004000020176CC1160000002077
:1003C0008080808080808080FF9FC090C090C0909F
:1003D000C090A0889F8780808080EF9F80808080F1
:1003E0009F87A088C090C091C091C089A08780805D
:1003F0008080EF9F80808080C080C080C080FF9F11
:10040000C080C080C08080808080809C81839E82EC
:10041000E0829E828183809C80808080FF9F80908C
:10042000809080908090809080808080FF9FC2909C
:10043000C290C090C090C090808080809C88A29024
:10044000C290C190C190C190A08F80808080808038
:10045000C090C090FF9FC090C09080808080C0906E
:10046000C090FF9FC090C0908080808080800000FE
:10047000000000008280828085808580888188815C
:1004800090829082A084A084C098C098A084A08408
:100490009082908288818881858085808280828018
:1004A00000000000808080808080FF9FA08090807E
:1004B00088809080A080FF9F80808080EF9F8080D8
:1004C0008080FF9FC180C181C182C284BC9880802E
:1004D0008080809C81838E82B882C082B8828E8226
:1004E0008183809C80808080FF9FC180C181C18288
:1004F000C284BC98808080809F87A088C090C09074
:10050000C090C09080808080FF9F808180818081AA
:1005100080818081FF9F80808080EF9F80808080AD
:080520008080808080808080D3
:0405280001000000CE
:04000005080000E10E
:00000001FF
