:020000040800F2
:1000000000500020090000082DE9F041394B88B06C
:100010001A6842F480321A601A689103FCD51A6893
:10002000344922F080721A605A6842F4E0125A6031
:100030005A6842F480325A601A6842F080721A603C
:100040000B689A01FCD52C482A4A036843F0020346
:1000500003604B6843F480634B604B6843F00203DA
:100060004B6053681B07FCD54FF0000E4FF0333048
:10007000012675469369214C43F00403936163683C
:100080009169DFF87C8023F0E06341F0010143F0E7
:10009000007301AF9161C4F800086360C4F80408FC
:1000A000B8E80F000FC798E8070087E80700DFF8F7
:1000B00054C0C4F80C580DEB4E039B88D4F80C28A0
:1000C00006FA03F31343C4F80C380095009B63450C
:1000D00005D8009B01330093009B6345F9D90EF1CD
:1000E000010E5FFA8EFEBEF10E0F08BF4FF0000E3C
:1000F000DFE700BF00100240002002400000014086
:10010000080100087FFC0A00070006000500040043
:100110000300020001000000080009000A000B00B3
:040120000C000F00C0
:0400000508000009E6
:00000001FF
